{
  "_format": "hh-sol-artifact-1",
  "contractName": "BlueCarbonCredit",
  "sourceName": "contracts/BlueCarbonCredit.sol",
  "abi": [
    {
      "inputs": [
        {
          "internalType": "address",
          "name": "defaultAdmin",
          "type": "address"
        }
      ],
      "stateMutability": "nonpayable",
      "type": "constructor"
    },
    {
      "inputs": [],
      "name": "AccessControlBadConfirmation",
      "type": "error"
    },
    {
      "inputs": [
        {
          "internalType": "address",
          "name": "account",
          "type": "address"
        },
        {
          "internalType": "bytes32",
          "name": "neededRole",
          "type": "bytes32"
        }
      ],
      "name": "AccessControlUnauthorizedAccount",
      "type": "error"
    },
    {
      "inputs": [
        {
          "internalType": "address",
          "name": "spender",
          "type": "address"
        },
        {
          "internalType": "uint256",
          "name": "allowance",
          "type": "uint256"
        },
        {
          "internalType": "uint256",
          "name": "needed",
          "type": "uint256"
        }
      ],
      "name": "ERC20InsufficientAllowance",
      "type": "error"
    },
    {
      "inputs": [
        {
          "internalType": "address",
          "name": "sender",
          "type": "address"
        },
        {
          "internalType": "uint256",
          "name": "balance",
          "type": "uint256"
        },
        {
          "internalType": "uint256",
          "name": "needed",
          "type": "uint256"
        }
      ],
      "name": "ERC20InsufficientBalance",
      "type": "error"
    },
    {
      "inputs": [
        {
          "internalType": "address",
          "name": "approver",
          "type": "address"
        }
      ],
      "name": "ERC20InvalidApprover",
      "type": "error"
    },
    {
      "inputs": [
        {
          "internalType": "address",
          "name": "receiver",
          "type": "address"
        }
      ],
      "name": "ERC20InvalidReceiver",
      "type": "error"
    },
    {
      "inputs": [
        {
          "internalType": "address",
          "name": "sender",
          "type": "address"
        }
      ],
      "name": "ERC20InvalidSender",
      "type": "error"
    },
    {
      "inputs": [
        {
          "internalType": "address",
          "name": "spender",
          "type": "address"
        }
      ],
      "name": "ERC20InvalidSpender",
      "type": "error"
    },
    {
      "inputs": [],
      "name": "EnforcedPause",
      "type": "error"
    },
    {
      "inputs": [],
      "name": "ExpectedPause",
      "type": "error"
    },
    {
      "anonymous": false,
      "inputs": [
        {
          "indexed": true,
          "internalType": "address",
          "name": "owner",
          "type": "address"
        },
        {
          "indexed": true,
          "internalType": "address",
          "name": "spender",
          "type": "address"
        },
        {
          "indexed": false,
          "internalType": "uint256",
          "name": "value",
          "type": "uint256"
        }
      ],
      "name": "Approval",
      "type": "event"
    },
    {
      "anonymous": false,
      "inputs": [
        {
          "indexed": true,
          "internalType": "uint256",
          "name": "batchId",
          "type": "uint256"
        },
        {
          "indexed": true,
          "internalType": "address",
          "name": "retiredBy",
          "type": "address"
        },
        {
          "indexed": false,
          "internalType": "string",
          "name": "reason",
          "type": "string"
        },
        {
          "indexed": false,
          "internalType": "string",
          "name": "certificateIPFS",
          "type": "string"
        }
      ],
      "name": "BatchRetired",
      "type": "event"
    },
    {
      "anonymous": false,
      "inputs": [
        {
          "indexed": true,
          "internalType": "uint256",
          "name": "batchId",
          "type": "uint256"
        },
        {
          "indexed": true,
          "internalType": "uint256",
          "name": "projectId",
          "type": "uint256"
        },
        {
          "indexed": true,
          "internalType": "uint256",
          "name": "verificationId",
          "type": "uint256"
        },
        {
          "indexed": false,
          "internalType": "address",
          "name": "developer",
          "type": "address"
        },
        {
          "indexed": false,
          "internalType": "uint256",
          "name": "amount",
          "type": "uint256"
        },
        {
          "indexed": false,
          "internalType": "string",
          "name": "metadataIPFSHash",
          "type": "string"
        }
      ],
      "name": "CreditBatchMinted",
      "type": "event"
    },
    {
      "anonymous": false,
      "inputs": [
        {
          "indexed": true,
          "internalType": "uint256",
          "name": "tokenId",
          "type": "uint256"
        },
        {
          "indexed": true,
          "internalType": "uint256",
          "name": "batchId",
          "type": "uint256"
        },
        {
          "indexed": true,
          "internalType": "address",
          "name": "retiredBy",
          "type": "address"
        },
        {
          "indexed": false,
          "internalType": "string",
          "name": "reason",
          "type": "string"
        },
        {
          "indexed": false,
          "internalType": "string",
          "name": "certificateIPFS",
          "type": "string"
        }
      ],
      "name": "CreditRetired",
      "type": "event"
    },
    {
      "anonymous": false,
      "inputs": [
        {
          "indexed": false,
          "internalType": "address",
          "name": "account",
          "type": "address"
        }
      ],
      "name": "Paused",
      "type": "event"
    },
    {
      "anonymous": false,
      "inputs": [
        {
          "indexed": true,
          "internalType": "bytes32",
          "name": "role",
          "type": "bytes32"
        },
        {
          "indexed": true,
          "internalType": "bytes32",
          "name": "previousAdminRole",
          "type": "bytes32"
        },
        {
          "indexed": true,
          "internalType": "bytes32",
          "name": "newAdminRole",
          "type": "bytes32"
        }
      ],
      "name": "RoleAdminChanged",
      "type": "event"
    },
    {
      "anonymous": false,
      "inputs": [
        {
          "indexed": true,
          "internalType": "bytes32",
          "name": "role",
          "type": "bytes32"
        },
        {
          "indexed": true,
          "internalType": "address",
          "name": "account",
          "type": "address"
        },
        {
          "indexed": true,
          "internalType": "address",
          "name": "sender",
          "type": "address"
        }
      ],
      "name": "RoleGranted",
      "type": "event"
    },
    {
      "anonymous": false,
      "inputs": [
        {
          "indexed": true,
          "internalType": "bytes32",
          "name": "role",
          "type": "bytes32"
        },
        {
          "indexed": true,
          "internalType": "address",
          "name": "account",
          "type": "address"
        },
        {
          "indexed": true,
          "internalType": "address",
          "name": "sender",
          "type": "address"
        }
      ],
      "name": "RoleRevoked",
      "type": "event"
    },
    {
      "anonymous": false,
      "inputs": [
        {
          "indexed": true,
          "internalType": "address",
          "name": "from",
          "type": "address"
        },
        {
          "indexed": true,
          "internalType": "address",
          "name": "to",
          "type": "address"
        },
        {
          "indexed": false,
          "internalType": "uint256",
          "name": "value",
          "type": "uint256"
        }
      ],
      "name": "Transfer",
      "type": "event"
    },
    {
      "anonymous": false,
      "inputs": [
        {
          "indexed": false,
          "internalType": "address",
          "name": "account",
          "type": "address"
        }
      ],
      "name": "Unpaused",
      "type": "event"
    },
    {
      "inputs": [],
      "name": "DEFAULT_ADMIN_ROLE",
      "outputs": [
        {
          "internalType": "bytes32",
          "name": "",
          "type": "bytes32"
        }
      ],
      "stateMutability": "view",
      "type": "function"
    },
    {
      "inputs": [],
      "name": "MINTER_ROLE",
      "outputs": [
        {
          "internalType": "bytes32",
          "name": "",
          "type": "bytes32"
        }
      ],
      "stateMutability": "view",
      "type": "function"
    },
    {
      "inputs": [],
      "name": "PAUSER_ROLE",
      "outputs": [
        {
          "internalType": "bytes32",
          "name": "",
          "type": "bytes32"
        }
      ],
      "stateMutability": "view",
      "type": "function"
    },
    {
      "inputs": [],
      "name": "VERIFIER_ROLE",
      "outputs": [
        {
          "internalType": "bytes32",
          "name": "",
          "type": "bytes32"
        }
      ],
      "stateMutability": "view",
      "type": "function"
    },
    {
      "inputs": [
        {
          "internalType": "address",
          "name": "owner",
          "type": "address"
        },
        {
          "internalType": "address",
          "name": "spender",
          "type": "address"
        }
      ],
      "name": "allowance",
      "outputs": [
        {
          "internalType": "uint256",
          "name": "",
          "type": "uint256"
        }
      ],
      "stateMutability": "view",
      "type": "function"
    },
    {
      "inputs": [
        {
          "internalType": "address",
          "name": "spender",
          "type": "address"
        },
        {
          "internalType": "uint256",
          "name": "value",
          "type": "uint256"
        }
      ],
      "name": "approve",
      "outputs": [
        {
          "internalType": "bool",
          "name": "",
          "type": "bool"
        }
      ],
      "stateMutability": "nonpayable",
      "type": "function"
    },
    {
      "inputs": [
        {
          "internalType": "address",
          "name": "account",
          "type": "address"
        }
      ],
      "name": "balanceOf",
      "outputs": [
        {
          "internalType": "uint256",
          "name": "",
          "type": "uint256"
        }
      ],
      "stateMutability": "view",
      "type": "function"
    },
    {
      "inputs": [
        {
          "internalType": "uint256",
          "name": "value",
          "type": "uint256"
        }
      ],
      "name": "burn",
      "outputs": [],
      "stateMutability": "nonpayable",
      "type": "function"
    },
    {
      "inputs": [
        {
          "internalType": "address",
          "name": "account",
          "type": "address"
        },
        {
          "internalType": "uint256",
          "name": "value",
          "type": "uint256"
        }
      ],
      "name": "burnFrom",
      "outputs": [],
      "stateMutability": "nonpayable",
      "type": "function"
    },
    {
      "inputs": [
        {
          "internalType": "uint256",
          "name": "",
          "type": "uint256"
        }
      ],
      "name": "creditBatches",
      "outputs": [
        {
          "internalType": "uint256",
          "name": "projectId",
          "type": "uint256"
        },
        {
          "internalType": "uint256",
          "name": "verificationId",
          "type": "uint256"
        },
        {
          "internalType": "string",
          "name": "metadataIPFSHash",
          "type": "string"
        },
        {
          "internalType": "address",
          "name": "developer",
          "type": "address"
        },
        {
          "internalType": "uint256",
          "name": "verifiedAmount",
          "type": "uint256"
        },
        {
          "internalType": "uint256",
          "name": "issuanceDate",
          "type": "uint256"
        },
        {
          "internalType": "bool",
          "name": "isRetired",
          "type": "bool"
        },
        {
          "internalType": "string",
          "name": "retirementReason",
          "type": "string"
        },
        {
          "internalType": "string",
          "name": "retirementCertificateIPFS",
          "type": "string"
        }
      ],
      "stateMutability": "view",
      "type": "function"
    },
    {
      "inputs": [],
      "name": "currentBatchId",
      "outputs": [
        {
          "internalType": "uint256",
          "name": "",
          "type": "uint256"
        }
      ],
      "stateMutability": "view",
      "type": "function"
    },
    {
      "inputs": [],
      "name": "currentTokenId",
      "outputs": [
        {
          "internalType": "uint256",
          "name": "",
          "type": "uint256"
        }
      ],
      "stateMutability": "view",
      "type": "function"
    },
    {
      "inputs": [],
      "name": "decimals",
      "outputs": [
        {
          "internalType": "uint8",
          "name": "",
          "type": "uint8"
        }
      ],
      "stateMutability": "pure",
      "type": "function"
    },
    {
      "inputs": [
        {
          "internalType": "uint256",
          "name": "batchId",
          "type": "uint256"
        }
      ],
      "name": "getCreditBatch",
      "outputs": [
        {
          "components": [
            {
              "internalType": "uint256",
              "name": "projectId",
              "type": "uint256"
            },
            {
              "internalType": "uint256",
              "name": "verificationId",
              "type": "uint256"
            },
            {
              "internalType": "string",
              "name": "metadataIPFSHash",
              "type": "string"
            },
            {
              "internalType": "address",
              "name": "developer",
              "type": "address"
            },
            {
              "internalType": "uint256",
              "name": "verifiedAmount",
              "type": "uint256"
            },
            {
              "internalType": "uint256",
              "name": "issuanceDate",
              "type": "uint256"
            },
            {
              "internalType": "bool",
              "name": "isRetired",
              "type": "bool"
            },
            {
              "internalType": "string",
              "name": "retirementReason",
              "type": "string"
            },
            {
              "internalType": "string",
              "name": "retirementCertificateIPFS",
              "type": "string"
            }
          ],
          "internalType": "struct BlueCarbonCredit.CreditBatch",
          "name": "",
          "type": "tuple"
        }
      ],
      "stateMutability": "view",
      "type": "function"
    },
    {
      "inputs": [
        {
          "internalType": "bytes32",
          "name": "role",
          "type": "bytes32"
        }
      ],
      "name": "getRoleAdmin",
      "outputs": [
        {
          "internalType": "bytes32",
          "name": "",
          "type": "bytes32"
        }
      ],
      "stateMutability": "view",
      "type": "function"
    },
    {
      "inputs": [
        {
          "internalType": "uint256",
          "name": "tokenId",
          "type": "uint256"
        }
      ],
      "name": "getTokenMetadata",
      "outputs": [
        {
          "internalType": "string",
          "name": "",
          "type": "string"
        }
      ],
      "stateMutability": "view",
      "type": "function"
    },
    {
      "inputs": [
        {
          "internalType": "bytes32",
          "name": "role",
          "type": "bytes32"
        },
        {
          "internalType": "address",
          "name": "account",
          "type": "address"
        }
      ],
      "name": "grantRole",
      "outputs": [],
      "stateMutability": "nonpayable",
      "type": "function"
    },
    {
      "inputs": [
        {
          "internalType": "bytes32",
          "name": "role",
          "type": "bytes32"
        },
        {
          "internalType": "address",
          "name": "account",
          "type": "address"
        }
      ],
      "name": "hasRole",
      "outputs": [
        {
          "internalType": "bool",
          "name": "",
          "type": "bool"
        }
      ],
      "stateMutability": "view",
      "type": "function"
    },
    {
      "inputs": [
        {
          "internalType": "uint256",
          "name": "tokenId",
          "type": "uint256"
        }
      ],
      "name": "isTokenRetired",
      "outputs": [
        {
          "internalType": "bool",
          "name": "",
          "type": "bool"
        }
      ],
      "stateMutability": "view",
      "type": "function"
    },
    {
      "inputs": [
        {
          "internalType": "uint256",
          "name": "projectId",
          "type": "uint256"
        },
        {
          "internalType": "uint256",
          "name": "verificationId",
          "type": "uint256"
        },
        {
          "internalType": "address",
          "name": "developer",
          "type": "address"
        },
        {
          "internalType": "uint256",
          "name": "amount",
          "type": "uint256"
        },
        {
          "internalType": "string",
          "name": "metadataIPFSHash",
          "type": "string"
        }
      ],
      "name": "mintCreditBatch",
      "outputs": [
        {
          "internalType": "uint256",
          "name": "batchId",
          "type": "uint256"
        }
      ],
      "stateMutability": "nonpayable",
      "type": "function"
    },
    {
      "inputs": [],
      "name": "name",
      "outputs": [
        {
          "internalType": "string",
          "name": "",
          "type": "string"
        }
      ],
      "stateMutability": "view",
      "type": "function"
    },
    {
      "inputs": [],
      "name": "pause",
      "outputs": [],
      "stateMutability": "nonpayable",
      "type": "function"
    },
    {
      "inputs": [],
      "name": "paused",
      "outputs": [
        {
          "internalType": "bool",
          "name": "",
          "type": "bool"
        }
      ],
      "stateMutability": "view",
      "type": "function"
    },
    {
      "inputs": [
        {
          "internalType": "bytes32",
          "name": "role",
          "type": "bytes32"
        },
        {
          "internalType": "address",
          "name": "callerConfirmation",
          "type": "address"
        }
      ],
      "name": "renounceRole",
      "outputs": [],
      "stateMutability": "nonpayable",
      "type": "function"
    },
    {
      "inputs": [
        {
          "internalType": "uint256",
          "name": "batchId",
          "type": "uint256"
        },
        {
          "internalType": "string",
          "name": "reason",
          "type": "string"
        },
        {
          "internalType": "string",
          "name": "certificateIPFS",
          "type": "string"
        }
      ],
      "name": "retireCreditBatch",
      "outputs": [],
      "stateMutability": "nonpayable",
      "type": "function"
    },
    {
      "inputs": [
        {
          "internalType": "uint256",
          "name": "amount",
          "type": "uint256"
        },
        {
          "internalType": "string",
          "name": "reason",
          "type": "string"
        },
        {
          "internalType": "string",
          "name": "certificateIPFS",
          "type": "string"
        }
      ],
      "name": "retireCredits",
      "outputs": [],
      "stateMutability": "nonpayable",
      "type": "function"
    },
    {
      "inputs": [
        {
          "internalType": "uint256",
          "name": "",
          "type": "uint256"
        }
      ],
      "name": "retiredTokens",
      "outputs": [
        {
          "internalType": "bool",
          "name": "",
          "type": "bool"
        }
      ],
      "stateMutability": "view",
      "type": "function"
    },
    {
      "inputs": [
        {
          "internalType": "bytes32",
          "name": "role",
          "type": "bytes32"
        },
        {
          "internalType": "address",
          "name": "account",
          "type": "address"
        }
      ],
      "name": "revokeRole",
      "outputs": [],
      "stateMutability": "nonpayable",
      "type": "function"
    },
    {
      "inputs": [
        {
          "internalType": "bytes4",
          "name": "interfaceId",
          "type": "bytes4"
        }
      ],
      "name": "supportsInterface",
      "outputs": [
        {
          "internalType": "bool",
          "name": "",
          "type": "bool"
        }
      ],
      "stateMutability": "view",
      "type": "function"
    },
    {
      "inputs": [],
      "name": "symbol",
      "outputs": [
        {
          "internalType": "string",
          "name": "",
          "type": "string"
        }
      ],
      "stateMutability": "view",
      "type": "function"
    },
    {
      "inputs": [
        {
          "internalType": "uint256",
          "name": "",
          "type": "uint256"
        }
      ],
      "name": "tokenToBatch",
      "outputs": [
        {
          "internalType": "uint256",
          "name": "",
          "type": "uint256"
        }
      ],
      "stateMutability": "view",
      "type": "function"
    },
    {
      "inputs": [],
      "name": "totalSupply",
      "outputs": [
        {
          "internalType": "uint256",
          "name": "",
          "type": "uint256"
        }
      ],
      "stateMutability": "view",
      "type": "function"
    },
    {
      "inputs": [
        {
          "internalType": "address",
          "name": "to",
          "type": "address"
        },
        {
          "internalType": "uint256",
          "name": "value",
          "type": "uint256"
        }
      ],
      "name": "transfer",
      "outputs": [
        {
          "internalType": "bool",
          "name": "",
          "type": "bool"
        }
      ],
      "stateMutability": "nonpayable",
      "type": "function"
    },
    {
      "inputs": [
        {
          "internalType": "address",
          "name": "from",
          "type": "address"
        },
        {
          "internalType": "address",
          "name": "to",
          "type": "address"
        },
        {
          "internalType": "uint256",
          "name": "value",
          "type": "uint256"
        }
      ],
      "name": "transferFrom",
      "outputs": [
        {
          "internalType": "bool",
          "name": "",
          "type": "bool"
        }
      ],
      "stateMutability": "nonpayable",
      "type": "function"
    },
    {
      "inputs": [],
      "name": "unpause",
      "outputs": [],
      "stateMutability": "nonpayable",
      "type": "function"
    }
  ],
  "bytecode": "0x60806040523480156200001157600080fd5b5060405162002322380380620023228339810160408190526200003491620001ef565b60405180604001604052806012815260200171109b1d594810d85c989bdb8810dc99591a5d60721b8152506040518060400160405280600381526020016242434360e81b81525081600390816200008c9190620002c8565b5060046200009b8282620002c8565b50620000ad915060009050826200013c565b50620000da7f9f2df0fed2c77648de5860a4cc508cd0818c85b8b8a1ab4ceeef8d981c8956a6826200013c565b50620001077f0ce23c3e399818cfee81a7ab0880f714e53d7672b08df0fa62f2843416e1ea09826200013c565b50620001347f65d7a28e3265b37a6474929f336521b332c1681b933f6cb9f3376673440d862a826200013c565b505062000394565b60008281526005602090815260408083206001600160a01b038516845290915281205460ff16620001e55760008381526005602090815260408083206001600160a01b03861684529091529020805460ff191660011790556200019c3390565b6001600160a01b0316826001600160a01b0316847f2f8788117e7eff1d82e926ec794901d17c78024a50270940304540a733656f0d60405160405180910390a4506001620001e9565b5060005b92915050565b6000602082840312156200020257600080fd5b81516001600160a01b03811681146200021a57600080fd5b9392505050565b634e487b7160e01b600052604160045260246000fd5b600181811c908216806200024c57607f821691505b6020821081036200026d57634e487b7160e01b600052602260045260246000fd5b50919050565b601f821115620002c3576000816000526020600020601f850160051c810160208610156200029e5750805b601f850160051c820191505b81811015620002bf57828155600101620002aa565b5050505b505050565b81516001600160401b03811115620002e457620002e462000221565b620002fc81620002f5845462000237565b8462000273565b602080601f8311600181146200033457600084156200031b5750858301515b600019600386901b1c1916600185901b178555620002bf565b600085815260208120601f198616915b82811015620003655788860151825594840194600190910190840162000344565b5085821015620003845787850151600019600388901b60f8161c191681555b5050505050600190811b01905550565b611f7e80620003a46000396000f3fe608060405234801561001057600080fd5b50600436106102105760003560e01c806370a0823111610125578063a9059cbb116100ad578063d547741f1161007c578063d547741f1461048b578063dd62ed3e1461049e578063e52501c8146104d7578063e63ab1e9146104f7578063e7705db61461051e57600080fd5b8063a9059cbb1461041b578063ae9a2efd1461042e578063cb4827d014610451578063d53913931461046457600080fd5b80638456cb59116100f45780638456cb59146103c857806384ba2da0146103d057806391d14854146103f857806395d89b411461040b578063a217fddf1461041357600080fd5b806370a082311461035957806371e020a91461038257806379cc6790146103955780637beaddeb146103a857600080fd5b80632f2ff15d116101a857806342966c681161017757806342966c681461030257806352b50158146103155780635c975abb14610328578063603168011461033357806365a10e5a1461034657600080fd5b80632f2ff15d146102c3578063313ce567146102d857806336568abe146102e75780633f4ba83a146102fa57600080fd5b80630a763da1116101e45780630a763da11461027c57806318160ddd1461028557806323b872dd1461028d578063248a9ca3146102a057600080fd5b80629a9b7b1461021557806301ffc9a71461023157806306fdde0314610254578063095ea7b314610269575b600080fd5b61021e600b5481565b6040519081526020015b60405180910390f35b61024461023f366004611923565b610545565b6040519015158152602001610228565b61025c610556565b6040516102289190611993565b6102446102773660046119c2565b6105e8565b61021e600a5481565b60025461021e565b61024461029b3660046119ec565b610600565b61021e6102ae366004611a28565b60009081526005602052604090206001015490565b6102d66102d1366004611a41565b610624565b005b60405160008152602001610228565b6102d66102f5366004611a41565b61064f565b6102d6610687565b6102d6610310366004611a28565b6106bc565b61021e610323366004611b10565b6106c6565b60065460ff16610244565b61025c610341366004611a28565b6109ba565b610244610354366004611a28565b610a70565b61021e610367366004611b7b565b6001600160a01b031660009081526020819052604090205490565b6102d6610390366004611b96565b610ab3565b6102d66103a33660046119c2565b610bff565b6103bb6103b6366004611a28565b610c18565b6040516102289190611c03565b6102d6610ee0565b6103e36103de366004611a28565b610f12565b60405161022899989796959493929190611cbf565b610244610406366004611a41565b611103565b61025c61112e565b61021e600081565b6102446104293660046119c2565b61113d565b61024461043c366004611a28565b60096020526000908152604090205460ff1681565b6102d661045f366004611b96565b61114b565b61021e7f9f2df0fed2c77648de5860a4cc508cd0818c85b8b8a1ab4ceeef8d981c8956a681565b6102d6610499366004611a41565b61132b565b61021e6104ac366004611d3d565b6001600160a01b03918216600090815260016020908152604080832093909416825291909152205490565b61021e6104e5366004611a28565b60086020526000908152604090205481565b61021e7f65d7a28e3265b37a6474929f336521b332c1681b933f6cb9f3376673440d862a81565b61021e7f0ce23c3e399818cfee81a7ab0880f714e53d7672b08df0fa62f2843416e1ea0981565b600061055082611350565b92915050565b60606003805461056590611d67565b80601f016020809104026020016040519081016040528092919081815260200182805461059190611d67565b80156105de5780601f106105b3576101008083540402835291602001916105de565b820191906000526020600020905b8154815290600101906020018083116105c157829003601f168201915b5050505050905090565b6000336105f6818585611385565b5060019392505050565b60003361060e858285611392565b61061985858561140b565b506001949350505050565b60008281526005602052604090206001015461063f8161146a565b6106498383611474565b50505050565b6001600160a01b03811633146106785760405163334bd91960e11b815260040160405180910390fd5b6106828282611508565b505050565b7f65d7a28e3265b37a6474929f336521b332c1681b933f6cb9f3376673440d862a6106b18161146a565b6106b9611575565b50565b6106b933826115c7565b60007f9f2df0fed2c77648de5860a4cc508cd0818c85b8b8a1ab4ceeef8d981c8956a66106f28161146a565b6106fa6115fd565b6001600160a01b0385166107555760405162461bcd60e51b815260206004820152601960248201527f496e76616c696420646576656c6f70657220616464726573730000000000000060448201526064015b60405180910390fd5b600084116107a55760405162461bcd60e51b815260206004820152601d60248201527f416d6f756e74206d7573742062652067726561746572207468616e2030000000604482015260640161074c565b60008351116107f65760405162461bcd60e51b815260206004820152601b60248201527f4d65746164617461204950465320686173682072657175697265640000000000604482015260640161074c565b600a805490600061080683611db7565b90915550604080516101208101825289815260208082018a81528284018881526001600160a01b038b166060850152608084018a90524260a0850152600060c085018190528551808501875281815260e086015285518085018752818152610100860152868152600790935293909120825181559051600182015591519294509160028201906108969082611e20565b5060608201516003820180546001600160a01b0319166001600160a01b039092169190911790556080820151600482015560a0820151600582015560c082015160068201805460ff191691151591909117905560e082015160078201906108fd9082611e20565b5061010082015160088201906109139082611e20565b509050506109218585611623565b60005b8481101561095857826008600083600b5461093f9190611ee0565b8152602081019190915260400160002055600101610924565b5083600b600082825461096b9190611ee0565b925050819055508587837f385ae9c1ff788b1b9454b5e3cbf81acc804991bda6e405864b78e912f9a5c94a8888886040516109a893929190611ef3565b60405180910390a45095945050505050565b6000818152600860209081526040808320548084526007909252909120600201805460609291906109ea90611d67565b80601f0160208091040260200160405190810160405280929190818152602001828054610a1690611d67565b8015610a635780601f10610a3857610100808354040283529160200191610a63565b820191906000526020600020905b815481529060010190602001808311610a4657829003601f168201915b5050505050915050919050565b600081815260086020908152604080832054808452600790925282206006015460ff1680610aac575060008381526009602052604090205460ff165b9392505050565b60008311610b035760405162461bcd60e51b815260206004820152601d60248201527f416d6f756e74206d7573742062652067726561746572207468616e2030000000604482015260640161074c565b33600090815260208190526040902054831115610b595760405162461bcd60e51b8152602060048201526014602482015273496e73756666696369656e742062616c616e636560601b604482015260640161074c565b6000825111610baa5760405162461bcd60e51b815260206004820152601a60248201527f5265746972656d656e7420726561736f6e207265717569726564000000000000604482015260640161074c565b610bb433846115c7565b336001600160a01b03166000807fda549027bdc5d2ce9eae9fad1865ec2e29de41531d53463745c352b101a31be18585604051610bf2929190611f23565b60405180910390a4505050565b610c0a823383611392565b610c1482826115c7565b5050565b610c7260405180610120016040528060008152602001600081526020016060815260200160006001600160a01b03168152602001600081526020016000815260200160001515815260200160608152602001606081525090565b600a548210610cb65760405162461bcd60e51b815260206004820152601060248201526f125b9d985b1a590818985d18da08125160821b604482015260640161074c565b60076000838152602001908152602001600020604051806101200160405290816000820154815260200160018201548152602001600282018054610cf990611d67565b80601f0160208091040260200160405190810160405280929190818152602001828054610d2590611d67565b8015610d725780601f10610d4757610100808354040283529160200191610d72565b820191906000526020600020905b815481529060010190602001808311610d5557829003601f168201915b505050918352505060038201546001600160a01b031660208201526004820154604082015260058201546060820152600682015460ff161515608082015260078201805460a090920191610dc590611d67565b80601f0160208091040260200160405190810160405280929190818152602001828054610df190611d67565b8015610e3e5780601f10610e1357610100808354040283529160200191610e3e565b820191906000526020600020905b815481529060010190602001808311610e2157829003601f168201915b50505050508152602001600882018054610e5790611d67565b80601f0160208091040260200160405190810160405280929190818152602001828054610e8390611d67565b8015610ed05780601f10610ea557610100808354040283529160200191610ed0565b820191906000526020600020905b815481529060010190602001808311610eb357829003601f168201915b5050505050815250509050919050565b7f65d7a28e3265b37a6474929f336521b332c1681b933f6cb9f3376673440d862a610f0a8161146a565b6106b9611659565b60076020526000908152604090208054600182015460028301805492939192610f3a90611d67565b80601f0160208091040260200160405190810160405280929190818152602001828054610f6690611d67565b8015610fb35780601f10610f8857610100808354040283529160200191610fb3565b820191906000526020600020905b815481529060010190602001808311610f9657829003601f168201915b505050600384015460048501546005860154600687015460078801805497986001600160a01b039095169793965091945060ff169291610ff290611d67565b80601f016020809104026020016040519081016040528092919081815260200182805461101e90611d67565b801561106b5780601f106110405761010080835404028352916020019161106b565b820191906000526020600020905b81548152906001019060200180831161104e57829003601f168201915b50505050509080600801805461108090611d67565b80601f01602080910402602001604051908101604052809291908181526020018280546110ac90611d67565b80156110f95780601f106110ce576101008083540402835291602001916110f9565b820191906000526020600020905b8154815290600101906020018083116110dc57829003601f168201915b5050505050905089565b60009182526005602090815260408084206001600160a01b0393909316845291905290205460ff1690565b60606004805461056590611d67565b6000336105f681858561140b565b600a54831061118f5760405162461bcd60e51b815260206004820152601060248201526f125b9d985b1a590818985d18da08125160821b604482015260640161074c565b6000838152600760205260409020600681015460ff16156111ea5760405162461bcd60e51b815260206004820152601560248201527410985d18da08185b1c9958591e481c995d1a5c9959605a1b604482015260640161074c565b60038101546001600160a01b031633148061120b575061120b600033611103565b6112635760405162461bcd60e51b815260206004820152602360248201527f4e6f7420617574686f72697a656420746f2072657469726520746869732062616044820152620e8c6d60eb1b606482015260840161074c565b60008351116112b45760405162461bcd60e51b815260206004820152601a60248201527f5265746972656d656e7420726561736f6e207265717569726564000000000000604482015260640161074c565b60068101805460ff19166001179055600781016112d18482611e20565b50600881016112e08382611e20565b50336001600160a01b0316847f3f60325dac83abbeb63a3c5f852fd960b960e178314e5e3f820e70f3b7ec4bc1858560405161131d929190611f23565b60405180910390a350505050565b6000828152600560205260409020600101546113468161146a565b6106498383611508565b60006001600160e01b03198216637965db0b60e01b148061055057506301ffc9a760e01b6001600160e01b0319831614610550565b6106828383836001611696565b6001600160a01b0383811660009081526001602090815260408083209386168352929052205460001981101561064957818110156113fc57604051637dc7a0d960e11b81526001600160a01b0384166004820152602481018290526044810183905260640161074c565b61064984848484036000611696565b6001600160a01b03831661143557604051634b637e8f60e11b81526000600482015260240161074c565b6001600160a01b03821661145f5760405163ec442f0560e01b81526000600482015260240161074c565b61068283838361175d565b6106b9813361178f565b60006114808383611103565b6115005760008381526005602090815260408083206001600160a01b03861684529091529020805460ff191660011790556114b83390565b6001600160a01b0316826001600160a01b0316847f2f8788117e7eff1d82e926ec794901d17c78024a50270940304540a733656f0d60405160405180910390a4506001610550565b506000610550565b60006115148383611103565b156115005760008381526005602090815260408083206001600160a01b0386168085529252808320805460ff1916905551339286917ff6391f5c32d9c69d2a47ea670b442974b53935d1edc7fd64eb21e047a839171b9190a4506001610550565b61157d6117c8565b6006805460ff191690557f5db9ee0a495bf2e6ff9c91a7834c1ba4fdd244a5e8aa4e537bd38aeae4b073aa335b6040516001600160a01b03909116815260200160405180910390a1565b6001600160a01b0382166115f157604051634b637e8f60e11b81526000600482015260240161074c565b610c148260008361175d565b60065460ff16156116215760405163d93c066560e01b815260040160405180910390fd5b565b6001600160a01b03821661164d5760405163ec442f0560e01b81526000600482015260240161074c565b610c146000838361175d565b6116616115fd565b6006805460ff191660011790557f62e78cea01bee320cd4e420270b5ea74000d11b0c9f74754ebdbfc544b05a2586115aa3390565b6001600160a01b0384166116c05760405163e602df0560e01b81526000600482015260240161074c565b6001600160a01b0383166116ea57604051634a1406b160e11b81526000600482015260240161074c565b6001600160a01b038085166000908152600160209081526040808320938716835292905220829055801561064957826001600160a01b0316846001600160a01b03167f8c5be1e5ebec7d5bd14f71427d1e84f3dd0314c0f7b2291e5b200ac8c7c3b9258460405161131d91815260200190565b6117688383836117eb565b6001600160a01b038316158061178557506001600160a01b038216155b1561068257505050565b6117998282611103565b610c145760405163e2517d3f60e01b81526001600160a01b03821660048201526024810183905260440161074c565b60065460ff1661162157604051638dfc202b60e01b815260040160405180910390fd5b6117f36115fd565b6106828383836001600160a01b0383166118245780600260008282546118199190611ee0565b909155506118969050565b6001600160a01b038316600090815260208190526040902054818110156118775760405163391434e360e21b81526001600160a01b0385166004820152602481018290526044810183905260640161074c565b6001600160a01b03841660009081526020819052604090209082900390555b6001600160a01b0382166118b2576002805482900390556118d1565b6001600160a01b03821660009081526020819052604090208054820190555b816001600160a01b0316836001600160a01b03167fddf252ad1be2c89b69c2b068fc378daa952ba7f163c4a11628f55a4df523b3ef8360405161191691815260200190565b60405180910390a3505050565b60006020828403121561193557600080fd5b81356001600160e01b031981168114610aac57600080fd5b6000815180845260005b8181101561197357602081850181015186830182015201611957565b506000602082860101526020601f19601f83011685010191505092915050565b602081526000610aac602083018461194d565b80356001600160a01b03811681146119bd57600080fd5b919050565b600080604083850312156119d557600080fd5b6119de836119a6565b946020939093013593505050565b600080600060608486031215611a0157600080fd5b611a0a846119a6565b9250611a18602085016119a6565b9150604084013590509250925092565b600060208284031215611a3a57600080fd5b5035919050565b60008060408385031215611a5457600080fd5b82359150611a64602084016119a6565b90509250929050565b634e487b7160e01b600052604160045260246000fd5b600082601f830112611a9457600080fd5b813567ffffffffffffffff80821115611aaf57611aaf611a6d565b604051601f8301601f19908116603f01168101908282118183101715611ad757611ad7611a6d565b81604052838152866020858801011115611af057600080fd5b836020870160208301376000602085830101528094505050505092915050565b600080600080600060a08688031215611b2857600080fd5b8535945060208601359350611b3f604087016119a6565b925060608601359150608086013567ffffffffffffffff811115611b6257600080fd5b611b6e88828901611a83565b9150509295509295909350565b600060208284031215611b8d57600080fd5b610aac826119a6565b600080600060608486031215611bab57600080fd5b83359250602084013567ffffffffffffffff80821115611bca57600080fd5b611bd687838801611a83565b93506040860135915080821115611bec57600080fd5b50611bf986828701611a83565b9150509250925092565b60208152815160208201526020820151604082015260006040830151610120806060850152611c3661014085018361194d565b91506060850151611c5260808601826001600160a01b03169052565b50608085015160a085015260a085015160c085015260c0850151611c7a60e086018215159052565b5060e0850151601f19610100818786030181880152611c99858461194d565b908801518782039092018488015293509050611cb5838261194d565b9695505050505050565b60006101208b83528a6020840152806040840152611cdf8184018b61194d565b6001600160a01b038a1660608501526080840189905260a0840188905286151560c085015283810360e08501529050611d18818661194d565b9050828103610100840152611d2d818561194d565b9c9b505050505050505050505050565b60008060408385031215611d5057600080fd5b611d59836119a6565b9150611a64602084016119a6565b600181811c90821680611d7b57607f821691505b602082108103611d9b57634e487b7160e01b600052602260045260246000fd5b50919050565b634e487b7160e01b600052601160045260246000fd5b600060018201611dc957611dc9611da1565b5060010190565b601f821115610682576000816000526020600020601f850160051c81016020861015611df95750805b601f850160051c820191505b81811015611e1857828155600101611e05565b505050505050565b815167ffffffffffffffff811115611e3a57611e3a611a6d565b611e4e81611e488454611d67565b84611dd0565b602080601f831160018114611e835760008415611e6b5750858301515b600019600386901b1c1916600185901b178555611e18565b600085815260208120601f198616915b82811015611eb257888601518255948401946001909101908401611e93565b5085821015611ed05787850151600019600388901b60f8161c191681555b5050505050600190811b01905550565b8082018082111561055057610550611da1565b60018060a01b0384168152826020820152606060408201526000611f1a606083018461194d565b95945050505050565b604081526000611f36604083018561194d565b8281036020840152611f1a818561194d56fea26469706673582212201c0a13be4a1397fbfd237da3a14b7efd3a8310f67779a518e75a5eb1cdeee67164736f6c63430008180033",
  "linkReferences": {},
  "deployedLinkReferences": {}
}