{
  "_format": "hh-sol-artifact-1",
  "contractName": "CarbonCreditMarketplace",
  "sourceName": "contracts/CarbonCreditMarketplace.sol",
  "abi": [
    {
      "inputs": [
        {
          "internalType": "address",
          "name": "_carbonCreditToken",
          "type": "address"
        },
        {
          "internalType": "uint256",
          "name": "_marketplaceFee",
          "type": "uint256"
        },
        {
          "internalType": "address",
          "name": "_feeRecipient",
          "type": "address"
        }
      ],
      "stateMutability": "nonpayable",
      "type": "constructor"
    },
    {
      "inputs": [],
      "name": "EnforcedPause",
      "type": "error"
    },
    {
      "inputs": [],
      "name": "ExpectedPause",
      "type": "error"
    },
    {
      "inputs": [
        {
          "internalType": "address",
          "name": "owner",
          "type": "address"
        }
      ],
      "name": "OwnableInvalidOwner",
      "type": "error"
    },
    {
      "inputs": [
        {
          "internalType": "address",
          "name": "account",
          "type": "address"
        }
      ],
      "name": "OwnableUnauthorizedAccount",
      "type": "error"
    },
    {
      "inputs": [],
      "name": "ReentrancyGuardReentrantCall",
      "type": "error"
    },
    {
      "inputs": [
        {
          "internalType": "address",
          "name": "token",
          "type": "address"
        }
      ],
      "name": "SafeERC20FailedOperation",
      "type": "error"
    },
    {
      "anonymous": false,
      "inputs": [
        {
          "indexed": true,
          "internalType": "uint256",
          "name": "listingId",
          "type": "uint256"
        },
        {
          "indexed": true,
          "internalType": "address",
          "name": "seller",
          "type": "address"
        }
      ],
      "name": "ListingCancelled",
      "type": "event"
    },
    {
      "anonymous": false,
      "inputs": [
        {
          "indexed": true,
          "internalType": "uint256",
          "name": "listingId",
          "type": "uint256"
        },
        {
          "indexed": true,
          "internalType": "address",
          "name": "seller",
          "type": "address"
        },
        {
          "indexed": false,
          "internalType": "uint256",
          "name": "amount",
          "type": "uint256"
        },
        {
          "indexed": false,
          "internalType": "uint256",
          "name": "pricePerCredit",
          "type": "uint256"
        },
        {
          "indexed": false,
          "internalType": "uint256",
          "name": "totalPrice",
          "type": "uint256"
        },
        {
          "indexed": false,
          "internalType": "uint256",
          "name": "expiresAt",
          "type": "uint256"
        }
      ],
      "name": "ListingCreated",
      "type": "event"
    },
    {
      "anonymous": false,
      "inputs": [
        {
          "indexed": true,
          "internalType": "uint256",
          "name": "listingId",
          "type": "uint256"
        },
        {
          "indexed": true,
          "internalType": "address",
          "name": "buyer",
          "type": "address"
        },
        {
          "indexed": true,
          "internalType": "address",
          "name": "seller",
          "type": "address"
        },
        {
          "indexed": false,
          "internalType": "uint256",
          "name": "amount",
          "type": "uint256"
        },
        {
          "indexed": false,
          "internalType": "uint256",
          "name": "totalPrice",
          "type": "uint256"
        }
      ],
      "name": "ListingPurchased",
      "type": "event"
    },
    {
      "anonymous": false,
      "inputs": [
        {
          "indexed": true,
          "internalType": "uint256",
          "name": "offerId",
          "type": "uint256"
        },
        {
          "indexed": true,
          "internalType": "uint256",
          "name": "listingId",
          "type": "uint256"
        },
        {
          "indexed": true,
          "internalType": "address",
          "name": "seller",
          "type": "address"
        },
        {
          "indexed": false,
          "internalType": "address",
          "name": "buyer",
          "type": "address"
        },
        {
          "indexed": false,
          "internalType": "uint256",
          "name": "amount",
          "type": "uint256"
        },
        {
          "indexed": false,
          "internalType": "uint256",
          "name": "totalPrice",
          "type": "uint256"
        }
      ],
      "name": "OfferAccepted",
      "type": "event"
    },
    {
      "anonymous": false,
      "inputs": [
        {
          "indexed": true,
          "internalType": "uint256",
          "name": "offerId",
          "type": "uint256"
        },
        {
          "indexed": true,
          "internalType": "address",
          "name": "buyer",
          "type": "address"
        }
      ],
      "name": "OfferCancelled",
      "type": "event"
    },
    {
      "anonymous": false,
      "inputs": [
        {
          "indexed": true,
          "internalType": "uint256",
          "name": "offerId",
          "type": "uint256"
        },
        {
          "indexed": true,
          "internalType": "uint256",
          "name": "listingId",
          "type": "uint256"
        },
        {
          "indexed": true,
          "internalType": "address",
          "name": "buyer",
          "type": "address"
        },
        {
          "indexed": false,
          "internalType": "uint256",
          "name": "amount",
          "type": "uint256"
        },
        {
          "indexed": false,
          "internalType": "uint256",
          "name": "pricePerCredit",
          "type": "uint256"
        },
        {
          "indexed": false,
          "internalType": "uint256",
          "name": "totalPrice",
          "type": "uint256"
        }
      ],
      "name": "OfferCreated",
      "type": "event"
    },
    {
      "anonymous": false,
      "inputs": [
        {
          "indexed": true,
          "internalType": "address",
          "name": "previousOwner",
          "type": "address"
        },
        {
          "indexed": true,
          "internalType": "address",
          "name": "newOwner",
          "type": "address"
        }
      ],
      "name": "OwnershipTransferred",
      "type": "event"
    },
    {
      "anonymous": false,
      "inputs": [
        {
          "indexed": false,
          "internalType": "address",
          "name": "account",
          "type": "address"
        }
      ],
      "name": "Paused",
      "type": "event"
    },
    {
      "anonymous": false,
      "inputs": [
        {
          "indexed": false,
          "internalType": "address",
          "name": "account",
          "type": "address"
        }
      ],
      "name": "Unpaused",
      "type": "event"
    },
    {
      "inputs": [
        {
          "internalType": "uint256",
          "name": "offerId",
          "type": "uint256"
        }
      ],
      "name": "acceptOffer",
      "outputs": [],
      "stateMutability": "nonpayable",
      "type": "function"
    },
    {
      "inputs": [
        {
          "internalType": "address",
          "name": "",
          "type": "address"
        },
        {
          "internalType": "uint256",
          "name": "",
          "type": "uint256"
        }
      ],
      "name": "buyerOffers",
      "outputs": [
        {
          "internalType": "uint256",
          "name": "",
          "type": "uint256"
        }
      ],
      "stateMutability": "view",
      "type": "function"
    },
    {
      "inputs": [
        {
          "internalType": "uint256",
          "name": "listingId",
          "type": "uint256"
        }
      ],
      "name": "cancelListing",
      "outputs": [],
      "stateMutability": "nonpayable",
      "type": "function"
    },
    {
      "inputs": [
        {
          "internalType": "uint256",
          "name": "offerId",
          "type": "uint256"
        }
      ],
      "name": "cancelOffer",
      "outputs": [],
      "stateMutability": "nonpayable",
      "type": "function"
    },
    {
      "inputs": [],
      "name": "carbonCreditToken",
      "outputs": [
        {
          "internalType": "contract IERC20",
          "name": "",
          "type": "address"
        }
      ],
      "stateMutability": "view",
      "type": "function"
    },
    {
      "inputs": [
        {
          "internalType": "uint256",
          "name": "amount",
          "type": "uint256"
        },
        {
          "internalType": "uint256",
          "name": "pricePerCredit",
          "type": "uint256"
        },
        {
          "internalType": "uint256",
          "name": "duration",
          "type": "uint256"
        },
        {
          "internalType": "string",
          "name": "metadataIPFS",
          "type": "string"
        }
      ],
      "name": "createListing",
      "outputs": [],
      "stateMutability": "nonpayable",
      "type": "function"
    },
    {
      "inputs": [
        {
          "internalType": "uint256",
          "name": "listingId",
          "type": "uint256"
        },
        {
          "internalType": "uint256",
          "name": "amount",
          "type": "uint256"
        },
        {
          "internalType": "uint256",
          "name": "pricePerCredit",
          "type": "uint256"
        },
        {
          "internalType": "uint256",
          "name": "duration",
          "type": "uint256"
        }
      ],
      "name": "createOffer",
      "outputs": [],
      "stateMutability": "payable",
      "type": "function"
    },
    {
      "inputs": [],
      "name": "emergencyWithdraw",
      "outputs": [],
      "stateMutability": "nonpayable",
      "type": "function"
    },
    {
      "inputs": [],
      "name": "feeRecipient",
      "outputs": [
        {
          "internalType": "address",
          "name": "",
          "type": "address"
        }
      ],
      "stateMutability": "view",
      "type": "function"
    },
    {
      "inputs": [
        {
          "internalType": "uint256",
          "name": "offset",
          "type": "uint256"
        },
        {
          "internalType": "uint256",
          "name": "limit",
          "type": "uint256"
        }
      ],
      "name": "getActiveListings",
      "outputs": [
        {
          "components": [
            {
              "internalType": "uint256",
              "name": "listingId",
              "type": "uint256"
            },
            {
              "internalType": "address",
              "name": "seller",
              "type": "address"
            },
            {
              "internalType": "uint256",
              "name": "amount",
              "type": "uint256"
            },
            {
              "internalType": "uint256",
              "name": "pricePerCredit",
              "type": "uint256"
            },
            {
              "internalType": "uint256",
              "name": "totalPrice",
              "type": "uint256"
            },
            {
              "internalType": "bool",
              "name": "isActive",
              "type": "bool"
            },
            {
              "internalType": "uint256",
              "name": "createdAt",
              "type": "uint256"
            },
            {
              "internalType": "uint256",
              "name": "expiresAt",
              "type": "uint256"
            },
            {
              "internalType": "string",
              "name": "metadataIPFS",
              "type": "string"
            }
          ],
          "internalType": "struct CarbonCreditMarketplace.Listing[]",
          "name": "",
          "type": "tuple[]"
        }
      ],
      "stateMutability": "view",
      "type": "function"
    },
    {
      "inputs": [
        {
          "internalType": "uint256",
          "name": "",
          "type": "uint256"
        }
      ],
      "name": "listings",
      "outputs": [
        {
          "internalType": "uint256",
          "name": "listingId",
          "type": "uint256"
        },
        {
          "internalType": "address",
          "name": "seller",
          "type": "address"
        },
        {
          "internalType": "uint256",
          "name": "amount",
          "type": "uint256"
        },
        {
          "internalType": "uint256",
          "name": "pricePerCredit",
          "type": "uint256"
        },
        {
          "internalType": "uint256",
          "name": "totalPrice",
          "type": "uint256"
        },
        {
          "internalType": "bool",
          "name": "isActive",
          "type": "bool"
        },
        {
          "internalType": "uint256",
          "name": "createdAt",
          "type": "uint256"
        },
        {
          "internalType": "uint256",
          "name": "expiresAt",
          "type": "uint256"
        },
        {
          "internalType": "string",
          "name": "metadataIPFS",
          "type": "string"
        }
      ],
      "stateMutability": "view",
      "type": "function"
    },
    {
      "inputs": [],
      "name": "marketplaceFee",
      "outputs": [
        {
          "internalType": "uint256",
          "name": "",
          "type": "uint256"
        }
      ],
      "stateMutability": "view",
      "type": "function"
    },
    {
      "inputs": [],
      "name": "nextListingId",
      "outputs": [
        {
          "internalType": "uint256",
          "name": "",
          "type": "uint256"
        }
      ],
      "stateMutability": "view",
      "type": "function"
    },
    {
      "inputs": [],
      "name": "nextOfferId",
      "outputs": [
        {
          "internalType": "uint256",
          "name": "",
          "type": "uint256"
        }
      ],
      "stateMutability": "view",
      "type": "function"
    },
    {
      "inputs": [
        {
          "internalType": "uint256",
          "name": "",
          "type": "uint256"
        }
      ],
      "name": "offers",
      "outputs": [
        {
          "internalType": "uint256",
          "name": "offerId",
          "type": "uint256"
        },
        {
          "internalType": "uint256",
          "name": "listingId",
          "type": "uint256"
        },
        {
          "internalType": "address",
          "name": "buyer",
          "type": "address"
        },
        {
          "internalType": "uint256",
          "name": "amount",
          "type": "uint256"
        },
        {
          "internalType": "uint256",
          "name": "pricePerCredit",
          "type": "uint256"
        },
        {
          "internalType": "uint256",
          "name": "totalPrice",
          "type": "uint256"
        },
        {
          "internalType": "uint256",
          "name": "expiresAt",
          "type": "uint256"
        },
        {
          "internalType": "bool",
          "name": "isActive",
          "type": "bool"
        }
      ],
      "stateMutability": "view",
      "type": "function"
    },
    {
      "inputs": [],
      "name": "owner",
      "outputs": [
        {
          "internalType": "address",
          "name": "",
          "type": "address"
        }
      ],
      "stateMutability": "view",
      "type": "function"
    },
    {
      "inputs": [],
      "name": "pause",
      "outputs": [],
      "stateMutability": "nonpayable",
      "type": "function"
    },
    {
      "inputs": [],
      "name": "paused",
      "outputs": [
        {
          "internalType": "bool",
          "name": "",
          "type": "bool"
        }
      ],
      "stateMutability": "view",
      "type": "function"
    },
    {
      "inputs": [
        {
          "internalType": "uint256",
          "name": "listingId",
          "type": "uint256"
        },
        {
          "internalType": "uint256",
          "name": "amount",
          "type": "uint256"
        }
      ],
      "name": "purchaseListing",
      "outputs": [],
      "stateMutability": "payable",
      "type": "function"
    },
    {
      "inputs": [],
      "name": "renounceOwnership",
      "outputs": [],
      "stateMutability": "nonpayable",
      "type": "function"
    },
    {
      "inputs": [
        {
          "internalType": "address",
          "name": "",
          "type": "address"
        },
        {
          "internalType": "uint256",
          "name": "",
          "type": "uint256"
        }
      ],
      "name": "sellerListings",
      "outputs": [
        {
          "internalType": "uint256",
          "name": "",
          "type": "uint256"
        }
      ],
      "stateMutability": "view",
      "type": "function"
    },
    {
      "inputs": [
        {
          "internalType": "address",
          "name": "_feeRecipient",
          "type": "address"
        }
      ],
      "name": "setFeeRecipient",
      "outputs": [],
      "stateMutability": "nonpayable",
      "type": "function"
    },
    {
      "inputs": [
        {
          "internalType": "uint256",
          "name": "_fee",
          "type": "uint256"
        }
      ],
      "name": "setMarketplaceFee",
      "outputs": [],
      "stateMutability": "nonpayable",
      "type": "function"
    },
    {
      "inputs": [
        {
          "internalType": "address",
          "name": "newOwner",
          "type": "address"
        }
      ],
      "name": "transferOwnership",
      "outputs": [],
      "stateMutability": "nonpayable",
      "type": "function"
    },
    {
      "inputs": [],
      "name": "unpause",
      "outputs": [],
      "stateMutability": "nonpayable",
      "type": "function"
    }
  ],
  "bytecode": "0x60a06040523480156200001157600080fd5b5060405162002592380380620025928339810160408190526200003491620001fe565b600160005533806200006157604051631e4fbdf760e01b8152600060048201526024015b60405180910390fd5b6200006c816200018f565b506001600160a01b038316620000c55760405162461bcd60e51b815260206004820152601560248201527f496e76616c696420746f6b656e20616464726573730000000000000000000000604482015260640162000058565b6001600160a01b0381166200011d5760405162461bcd60e51b815260206004820152601560248201527f496e76616c69642066656520726563697069656e740000000000000000000000604482015260640162000058565b6103e8821115620001605760405162461bcd60e51b815260206004820152600c60248201526b08ccaca40e8dede40d0d2ced60a31b604482015260640162000058565b6001600160a01b03928316608052600291909155600380546001600160a01b031916919092161790556200023f565b600180546001600160a01b038381166001600160a01b0319831681179093556040519116919082907f8be0079c531659141344cd1fd0a4f28419497f9722a3daafe3b4186f6b6457e090600090a35050565b80516001600160a01b0381168114620001f957600080fd5b919050565b6000806000606084860312156200021457600080fd5b6200021f84620001e1565b9250602084015191506200023660408501620001e1565b90509250925092565b6080516123146200027e60003960008181610284015281816107250152818161094201528181610e9901528181610f72015261166401526123146000f3fe6080604052600436106101655760003560e01c80638456cb59116100d1578063c815729d1161008a578063e6b5f31411610064578063e6b5f314146104a8578063e74b981b146104c8578063ef706adf146104e8578063f2fde38b1461050857600080fd5b8063c815729d1461043e578063db2e21bc1461045e578063de74e57b1461047357600080fd5b80638456cb59146102f15780638a72ea6a146103065780638da5cb5b146103bd5780639407ea98146103db578063aaccf1ec146103fb578063c128b2311461041157600080fd5b80635c975abb116101235780635c975abb146102325780635f5d06551461025c57806366dea358146102725780636a166964146102a6578063715018a6146102bc578063743fd0a5146102d157600080fd5b8062b395f41461016a578063054564f01461017f578063305a67a8146101b25780633a97f852146101d25780633f4ba83a146101e557806346904840146101fa575b600080fd5b61017d610178366004611d81565b610528565b005b34801561018b57600080fd5b5061019f61019a366004611dbf565b61086b565b6040519081526020015b60405180910390f35b3480156101be57600080fd5b5061017d6101cd366004611de9565b61089c565b61017d6101e0366004611e02565b6109a5565b3480156101f157600080fd5b5061017d610d5e565b34801561020657600080fd5b5060035461021a906001600160a01b031681565b6040516001600160a01b0390911681526020016101a9565b34801561023e57600080fd5b50600154600160a01b900460ff1660405190151581526020016101a9565b34801561026857600080fd5b5061019f60095481565b34801561027e57600080fd5b5061021a7f000000000000000000000000000000000000000000000000000000000000000081565b3480156102b257600080fd5b5061019f60025481565b3480156102c857600080fd5b5061017d610d70565b3480156102dd57600080fd5b5061017d6102ec366004611e4a565b610d82565b3480156102fd57600080fd5b5061017d61114b565b34801561031257600080fd5b50610372610321366004611de9565b600560208190526000918252604090912080546001820154600283015460038401546004850154958501546006860154600790960154949693956001600160a01b0390931694919392909160ff1688565b6040805198895260208901979097526001600160a01b03909516958701959095526060860192909252608085015260a084015260c0830191909152151560e0820152610100016101a9565b3480156103c957600080fd5b506001546001600160a01b031661021a565b3480156103e757600080fd5b5061017d6103f6366004611de9565b61115b565b34801561040757600080fd5b5061019f60085481565b34801561041d57600080fd5b5061043161042c366004611d81565b6111a9565b6040516101a99190611f5e565b34801561044a57600080fd5b5061017d610459366004611de9565b61144f565b34801561046a57600080fd5b5061017d61176d565b34801561047f57600080fd5b5061049361048e366004611de9565b6117b6565b6040516101a99998979695949392919061202a565b3480156104b457600080fd5b5061019f6104c3366004611dbf565b611899565b3480156104d457600080fd5b5061017d6104e3366004612089565b6118b5565b3480156104f457600080fd5b5061017d610503366004611de9565b61192d565b34801561051457600080fd5b5061017d610523366004612089565b611a4b565b610530611a86565b610538611ab0565b6000828152600460205260409020600581015460ff166105735760405162461bcd60e51b815260040161056a906120ab565b60405180910390fd5b806007015442106105b85760405162461bcd60e51b815260206004820152600f60248201526e131a5cdd1a5b99c8195e1c1a5c9959608a1b604482015260640161056a565b6000821180156105cc575080600201548211155b6106095760405162461bcd60e51b815260206004820152600e60248201526d125b9d985b1a5908185b5bdd5b9d60921b604482015260640161056a565b60018101546001600160a01b0316330361065e5760405162461bcd60e51b815260206004820152601660248201527543616e6e6f7420627579206f776e206c697374696e6760501b604482015260640161056a565b600081600301548361067091906120ed565b9050803410156106b95760405162461bcd60e51b8152602060048201526014602482015273125b9cdd59999a58da595b9d081c185e5b595b9d60621b604482015260640161056a565b6000612710600254836106cc91906120ed565b6106d69190612104565b905060006106e48284612126565b9050848460020160008282546106fa9190612126565b909155505060028401546000036107185760058401805460ff191690555b61074c6001600160a01b037f0000000000000000000000000000000000000000000000000000000000000000163387611adb565b60018401546040516001600160a01b039091169082156108fc029083906000818181858888f19350505050158015610788573d6000803e3d6000fd5b5081156107cb576003546040516001600160a01b039091169083156108fc029084906000818181858888f193505050501580156107c9573d6000803e3d6000fd5b505b8234111561080b57336108fc6107e18534612126565b6040518115909202916000818181858888f19350505050158015610809573d6000803e3d6000fd5b505b600184015460408051878152602081018690526001600160a01b0390921691339189917f67806fb1f9a1d5258c8ae3101868dc1bbd114cb2c1829b37dbdd88d64cf17d82910160405180910390a4505050506108676001600055565b5050565b6006602052816000526040600020818154811061088757600080fd5b90600052602060002001600091509150505481565b6108a4611a86565b600081815260046020526040902060018101546001600160a01b031633146108ff5760405162461bcd60e51b815260206004820152600e60248201526d2737ba103a34329039b2b63632b960911b604482015260640161056a565b600581015460ff166109235760405162461bcd60e51b815260040161056a906120ab565b60058101805460ff19169055600281015461096a906001600160a01b037f000000000000000000000000000000000000000000000000000000000000000016903390611adb565b604051339083907f8e25282255ab31897df2b0456bb993ac7f84d376861aefd84901d2d63a7428a290600090a3506109a26001600055565b50565b6109ad611a86565b6109b5611ab0565b6000848152600460205260409020600581015460ff166109e75760405162461bcd60e51b815260040161056a906120ab565b80600701544210610a2c5760405162461bcd60e51b815260206004820152600f60248201526e131a5cdd1a5b99c8195e1c1a5c9959608a1b604482015260640161056a565b600084118015610a40575080600201548411155b610a7d5760405162461bcd60e51b815260206004820152600e60248201526d125b9d985b1a5908185b5bdd5b9d60921b604482015260640161056a565b60008311610acd5760405162461bcd60e51b815260206004820152601c60248201527f5072696365206d7573742062652067726561746572207468616e203000000000604482015260640161056a565b60008211610b1d5760405162461bcd60e51b815260206004820152601f60248201527f4475726174696f6e206d7573742062652067726561746572207468616e203000604482015260640161056a565b60018101546001600160a01b03163303610b795760405162461bcd60e51b815260206004820152601b60248201527f43616e6e6f74206f66666572206f6e206f776e206c697374696e670000000000604482015260640161056a565b6000610b8584866120ed565b905080341015610bd75760405162461bcd60e51b815260206004820152601e60248201527f496e73756666696369656e74207061796d656e7420666f72206f666665720000604482015260640161056a565b6009805460009182610be883612139565b9091555090506000610bfa8542612152565b604080516101008101825284815260208082018c815233838501818152606085018e8152608086018e815260a087018c815260c088018a8152600160e08a0181815260008f81526005808c528d82209c518d5599518c840155965160028c0180546001600160a01b0319166001600160a01b03909216919091179055945160038b0155925160048a015590519588019590955593516006870155516007958601805460ff1916911515919091179055908152928252928220805493840181558252902001839055905034831015610d0357336108fc610cd98534612126565b6040518115909202916000818181858888f19350505050158015610d01573d6000803e3d6000fd5b505b60408051888152602081018890529081018490523390899084907fe40c243b607c6cdc3569cbfd2b09b2e8416b69706cee0efa7184dc62a2e0542c9060600160405180910390a450505050610d586001600055565b50505050565b610d66611b3f565b610d6e611b6c565b565b610d78611b3f565b610d6e6000611bc1565b610d8a611a86565b610d92611ab0565b60008411610de25760405162461bcd60e51b815260206004820152601d60248201527f416d6f756e74206d7573742062652067726561746572207468616e2030000000604482015260640161056a565b60008311610e325760405162461bcd60e51b815260206004820152601c60248201527f5072696365206d7573742062652067726561746572207468616e203000000000604482015260640161056a565b60008211610e825760405162461bcd60e51b815260206004820152601f60248201527f4475726174696f6e206d7573742062652067726561746572207468616e203000604482015260640161056a565b6040516370a0823160e01b815233600482015284907f00000000000000000000000000000000000000000000000000000000000000006001600160a01b0316906370a0823190602401602060405180830381865afa158015610ee8573d6000803e3d6000fd5b505050506040513d601f19601f82011682018060405250810190610f0c9190612165565b1015610f655760405162461bcd60e51b815260206004820152602260248201527f496e73756666696369656e7420636172626f6e206372656469742062616c616e604482015261636560f01b606482015260840161056a565b610f9a6001600160a01b037f000000000000000000000000000000000000000000000000000000000000000016333087611c13565b6008805460009182610fab83612139565b9091555090506000610fbd85876120ed565b90506000610fcb8542612152565b9050604051806101200160405280848152602001336001600160a01b0316815260200188815260200187815260200183815260200160011515815260200142815260200182815260200185815250600460008581526020019081526020016000206000820151816000015560208201518160010160006101000a8154816001600160a01b0302191690836001600160a01b0316021790555060408201518160020155606082015181600301556080820151816004015560a08201518160050160006101000a81548160ff02191690831515021790555060c0820151816006015560e082015181600701556101008201518160080190816110cb9190612208565b505033600081815260066020908152604080832080546001810182559084529282902090920187905581518b81529081018a90529081018590526060810184905290915084907f4ceb7a9035c26a39ff067cc8e036d4b6a1fe30f8a5916415faf0febb6e71bd119060800160405180910390a3505050610d586001600055565b611153611b3f565b610d6e611c4c565b611163611b3f565b6103e88111156111a45760405162461bcd60e51b815260206004820152600c60248201526b08ccaca40e8dede40d0d2ced60a31b604482015260640161056a565b600255565b6008546060908084106111f05760408051600080825260208201909252906111e7565b6111d4611d2a565b8152602001906001900390816111cc5790505b50915050611449565b60006111fc8486612152565b9050818111156112095750805b6000855b828110156112615760008181526004602052604090206005015460ff168015611246575060008181526004602052604090206007015442105b15611259578161125581612139565b9250505b60010161120d565b5060008167ffffffffffffffff81111561127d5761127d611e34565b6040519080825280602002602001820160405280156112b657816020015b6112a3611d2a565b81526020019060019003908161129b5790505b5090506000875b848110156114405760008181526004602052604090206005015460ff1680156112f6575060008181526004602052604090206007015442105b15611438576000818152600460208181526040928390208351610120810185528154815260018201546001600160a01b03169281019290925260028101549382019390935260038301546060820152908201546080820152600582015460ff16151560a0820152600682015460c0820152600782015460e08201526008820180549192916101008401919061138a9061217e565b80601f01602080910402602001604051908101604052809291908181526020018280546113b69061217e565b80156114035780601f106113d857610100808354040283529160200191611403565b820191906000526020600020905b8154815290600101906020018083116113e657829003601f168201915b50505050508152505083838151811061141e5761141e6122c8565b6020026020010181905250818061143490612139565b9250505b6001016112bd565b50909450505050505b92915050565b611457611a86565b61145f611ab0565b6000818152600560205260409020600781015460ff166114b45760405162461bcd60e51b815260206004820152601060248201526f4f66666572206e6f742061637469766560801b604482015260640161056a565b806006015442106114f75760405162461bcd60e51b815260206004820152600d60248201526c13d999995c88195e1c1a5c9959609a1b604482015260640161056a565b6001808201546000908152600460205260409020908101546001600160a01b031633146115575760405162461bcd60e51b815260206004820152600e60248201526d2737ba103a34329039b2b63632b960911b604482015260640161056a565b600581015460ff1661157b5760405162461bcd60e51b815260040161056a906120ab565b8160030154816002015410156115d35760405162461bcd60e51b815260206004820152601f60248201527f496e73756666696369656e74206372656469747320696e206c697374696e6700604482015260640161056a565b600061271060025484600501546115ea91906120ed565b6115f49190612104565b905060008184600501546116089190612126565b905083600301548360020160008282546116229190612126565b909155505060028301546000036116405760058301805460ff191690555b60078401805460ff191690556002840154600385015461168e916001600160a01b037f0000000000000000000000000000000000000000000000000000000000000000811692911690611adb565b604051339082156108fc029083906000818181858888f193505050501580156116bb573d6000803e3d6000fd5b5081156116fe576003546040516001600160a01b039091169083156108fc029084906000818181858888f193505050501580156116fc573d6000803e3d6000fd5b505b6001840154600285015460038601546005870154604080516001600160a01b0390941684526020840192909252828201525133929188917fdaf07891f5285c11e75387020299910ed108c13f1b6a0650baeb919d53b50c459181900360600190a4505050506109a26001600055565b611775611b3f565b4780156109a2576001546040516001600160a01b039091169082156108fc029083906000818181858888f19350505050158015610867573d6000803e3d6000fd5b600460208190526000918252604090912080546001820154600283015460038401549484015460058501546006860154600787015460088801805497996001600160a01b03909716989597949560ff90941694929391926118169061217e565b80601f01602080910402602001604051908101604052809291908181526020018280546118429061217e565b801561188f5780601f106118645761010080835404028352916020019161188f565b820191906000526020600020905b81548152906001019060200180831161187257829003601f168201915b5050505050905089565b6007602052816000526040600020818154811061088757600080fd5b6118bd611b3f565b6001600160a01b03811661190b5760405162461bcd60e51b8152602060048201526015602482015274125b9d985b1a5908199959481c9958da5c1a595b9d605a1b604482015260640161056a565b600380546001600160a01b0319166001600160a01b0392909216919091179055565b611935611a86565b600081815260056020526040902060028101546001600160a01b0316331461198f5760405162461bcd60e51b815260206004820152600d60248201526c2737ba103a343290313abcb2b960991b604482015260640161056a565b600781015460ff166119d65760405162461bcd60e51b815260206004820152601060248201526f4f66666572206e6f742061637469766560801b604482015260640161056a565b60078101805460ff191690556005810154604051339180156108fc02916000818181858888f19350505050158015611a12573d6000803e3d6000fd5b50604051339083907f1f51377b3e685a0e2419f9bb4ba7c07ec54936353ba3d0fb3c6538dab676622290600090a3506109a26001600055565b611a53611b3f565b6001600160a01b038116611a7d57604051631e4fbdf760e01b81526000600482015260240161056a565b6109a281611bc1565b600260005403611aa957604051633ee5aeb560e01b815260040160405180910390fd5b6002600055565b600154600160a01b900460ff1615610d6e5760405163d93c066560e01b815260040160405180910390fd5b6040516001600160a01b03838116602483015260448201839052611b3a91859182169063a9059cbb906064015b604051602081830303815290604052915060e01b6020820180516001600160e01b038381831617835250505050611c8f565b505050565b6001546001600160a01b03163314610d6e5760405163118cdaa760e01b815233600482015260240161056a565b611b74611d00565b6001805460ff60a01b191690557f5db9ee0a495bf2e6ff9c91a7834c1ba4fdd244a5e8aa4e537bd38aeae4b073aa335b6040516001600160a01b03909116815260200160405180910390a1565b600180546001600160a01b038381166001600160a01b0319831681179093556040519116919082907f8be0079c531659141344cd1fd0a4f28419497f9722a3daafe3b4186f6b6457e090600090a35050565b6040516001600160a01b038481166024830152838116604483015260648201839052610d589186918216906323b872dd90608401611b08565b611c54611ab0565b6001805460ff60a01b1916600160a01b1790557f62e78cea01bee320cd4e420270b5ea74000d11b0c9f74754ebdbfc544b05a258611ba43390565b600080602060008451602086016000885af180611cb2576040513d6000823e3d81fd5b50506000513d91508115611cca578060011415611cd7565b6001600160a01b0384163b155b15610d5857604051635274afe760e01b81526001600160a01b038516600482015260240161056a565b600154600160a01b900460ff16610d6e57604051638dfc202b60e01b815260040160405180910390fd5b6040518061012001604052806000815260200160006001600160a01b031681526020016000815260200160008152602001600081526020016000151581526020016000815260200160008152602001606081525090565b60008060408385031215611d9457600080fd5b50508035926020909101359150565b80356001600160a01b0381168114611dba57600080fd5b919050565b60008060408385031215611dd257600080fd5b611ddb83611da3565b946020939093013593505050565b600060208284031215611dfb57600080fd5b5035919050565b60008060008060808587031215611e1857600080fd5b5050823594602084013594506040840135936060013592509050565b634e487b7160e01b600052604160045260246000fd5b60008060008060808587031215611e6057600080fd5b843593506020850135925060408501359150606085013567ffffffffffffffff80821115611e8d57600080fd5b818701915087601f830112611ea157600080fd5b813581811115611eb357611eb3611e34565b604051601f8201601f19908116603f01168101908382118183101715611edb57611edb611e34565b816040528281528a6020848701011115611ef457600080fd5b82602086016020830137600060208483010152809550505050505092959194509250565b6000815180845260005b81811015611f3e57602081850181015186830182015201611f22565b506000602082860101526020601f19601f83011685010191505092915050565b600060208083018184528085518083526040925060408601915060408160051b87010184880160005b8381101561201c57603f19898403018552815180518452878101516001600160a01b0316888501528681015187850152606080820151908501526080808201519085015260a08082015115159085015260c0808201519085015260e08082015190850152610100908101516101209185018290529061200881860183611f18565b968901969450505090860190600101611f87565b509098975050505050505050565b60006101208b835260018060a01b038b16602084015289604084015288606084015287608084015286151560a08401528560c08401528460e08401528061010084015261207981840185611f18565b9c9b505050505050505050505050565b60006020828403121561209b57600080fd5b6120a482611da3565b9392505050565b6020808252601290820152714c697374696e67206e6f742061637469766560701b604082015260600190565b634e487b7160e01b600052601160045260246000fd5b8082028115828204841417611449576114496120d7565b60008261212157634e487b7160e01b600052601260045260246000fd5b500490565b81810381811115611449576114496120d7565b60006001820161214b5761214b6120d7565b5060010190565b80820180821115611449576114496120d7565b60006020828403121561217757600080fd5b5051919050565b600181811c9082168061219257607f821691505b6020821081036121b257634e487b7160e01b600052602260045260246000fd5b50919050565b601f821115611b3a576000816000526020600020601f850160051c810160208610156121e15750805b601f850160051c820191505b81811015612200578281556001016121ed565b505050505050565b815167ffffffffffffffff81111561222257612222611e34565b61223681612230845461217e565b846121b8565b602080601f83116001811461226b57600084156122535750858301515b600019600386901b1c1916600185901b178555612200565b600085815260208120601f198616915b8281101561229a5788860151825594840194600190910190840161227b565b50858210156122b85787850151600019600388901b60f8161c191681555b5050505050600190811b01905550565b634e487b7160e01b600052603260045260246000fdfea26469706673582212205fa056782cff3de5e4a2f047349133919c8c463ea12cc02dfc5b9fb8d27f75ec64736f6c63430008180033",
  "linkReferences": {},
  "deployedLinkReferences": {}
}